{
  "address": "0x8FdF9657D6D40661792cb73F6F6631D2597DFa1F",
  "abi": [
    {
      "inputs": [
        {
          "internalType": "address",
          "name": "verificationAddress",
          "type": "address"
        },
        {
          "internalType": "address",
          "name": "attestorKey",
          "type": "address"
        },
        {
          "internalType": "address",
          "name": "issuerKey",
          "type": "address"
        }
      ],
      "stateMutability": "nonpayable",
      "type": "constructor"
    },
    {
      "anonymous": false,
      "inputs": [
        {
          "indexed": true,
          "internalType": "address",
          "name": "owner",
          "type": "address"
        },
        {
          "indexed": true,
          "internalType": "address",
          "name": "approved",
          "type": "address"
        },
        {
          "indexed": true,
          "internalType": "uint256",
          "name": "tokenId",
          "type": "uint256"
        }
      ],
      "name": "Approval",
      "type": "event"
    },
    {
      "anonymous": false,
      "inputs": [
        {
          "indexed": true,
          "internalType": "address",
          "name": "owner",
          "type": "address"
        },
        {
          "indexed": true,
          "internalType": "address",
          "name": "operator",
          "type": "address"
        },
        {
          "indexed": false,
          "internalType": "bool",
          "name": "approved",
          "type": "bool"
        }
      ],
      "name": "ApprovalForAll",
      "type": "event"
    },
    {
      "anonymous": false,
      "inputs": [
        {
          "indexed": true,
          "internalType": "address",
          "name": "addr",
          "type": "address"
        },
        {
          "indexed": true,
          "internalType": "uint256",
          "name": "id",
          "type": "uint256"
        }
      ],
      "name": "GenerateCommitment",
      "type": "event"
    },
    {
      "anonymous": false,
      "inputs": [
        {
          "indexed": true,
          "internalType": "address",
          "name": "addr",
          "type": "address"
        },
        {
          "indexed": true,
          "internalType": "uint256",
          "name": "id",
          "type": "uint256"
        }
      ],
      "name": "GenerateTokenId",
      "type": "event"
    },
    {
      "anonymous": false,
      "inputs": [
        {
          "indexed": true,
          "internalType": "address",
          "name": "previousOwner",
          "type": "address"
        },
        {
          "indexed": true,
          "internalType": "address",
          "name": "newOwner",
          "type": "address"
        }
      ],
      "name": "OwnershipTransferred",
      "type": "event"
    },
    {
      "anonymous": false,
      "inputs": [
        {
          "indexed": true,
          "internalType": "address",
          "name": "from",
          "type": "address"
        },
        {
          "indexed": true,
          "internalType": "address",
          "name": "to",
          "type": "address"
        },
        {
          "indexed": true,
          "internalType": "uint256",
          "name": "tokenId",
          "type": "uint256"
        }
      ],
      "name": "Transfer",
      "type": "event"
    },
    {
      "inputs": [
        {
          "internalType": "address",
          "name": "to",
          "type": "address"
        },
        {
          "internalType": "uint256",
          "name": "tokenId",
          "type": "uint256"
        }
      ],
      "name": "approve",
      "outputs": [],
      "stateMutability": "nonpayable",
      "type": "function"
    },
    {
      "inputs": [
        {
          "internalType": "address",
          "name": "owner",
          "type": "address"
        }
      ],
      "name": "balanceOf",
      "outputs": [
        {
          "internalType": "uint256",
          "name": "",
          "type": "uint256"
        }
      ],
      "stateMutability": "view",
      "type": "function"
    },
    {
      "inputs": [
        {
          "internalType": "uint256",
          "name": "tokenId",
          "type": "uint256"
        }
      ],
      "name": "burn",
      "outputs": [],
      "stateMutability": "nonpayable",
      "type": "function"
    },
    {
      "inputs": [],
      "name": "endContract",
      "outputs": [],
      "stateMutability": "payable",
      "type": "function"
    },
    {
      "inputs": [
        {
          "internalType": "uint256",
          "name": "tokenId",
          "type": "uint256"
        }
      ],
      "name": "getApproved",
      "outputs": [
        {
          "internalType": "address",
          "name": "",
          "type": "address"
        }
      ],
      "stateMutability": "view",
      "type": "function"
    },
    {
      "inputs": [
        {
          "internalType": "address",
          "name": "owner",
          "type": "address"
        },
        {
          "internalType": "address",
          "name": "operator",
          "type": "address"
        }
      ],
      "name": "isApprovedForAll",
      "outputs": [
        {
          "internalType": "bool",
          "name": "",
          "type": "bool"
        }
      ],
      "stateMutability": "view",
      "type": "function"
    },
    {
      "inputs": [
        {
          "internalType": "bytes",
          "name": "attestation",
          "type": "bytes"
        }
      ],
      "name": "mintUsingAttestation",
      "outputs": [
        {
          "internalType": "uint256",
          "name": "tokenId",
          "type": "uint256"
        }
      ],
      "stateMutability": "nonpayable",
      "type": "function"
    },
    {
      "inputs": [],
      "name": "name",
      "outputs": [
        {
          "internalType": "string",
          "name": "",
          "type": "string"
        }
      ],
      "stateMutability": "view",
      "type": "function"
    },
    {
      "inputs": [],
      "name": "owner",
      "outputs": [
        {
          "internalType": "address",
          "name": "",
          "type": "address"
        }
      ],
      "stateMutability": "view",
      "type": "function"
    },
    {
      "inputs": [
        {
          "internalType": "uint256",
          "name": "tokenId",
          "type": "uint256"
        }
      ],
      "name": "ownerOf",
      "outputs": [
        {
          "internalType": "address",
          "name": "",
          "type": "address"
        }
      ],
      "stateMutability": "view",
      "type": "function"
    },
    {
      "inputs": [],
      "name": "renounceOwnership",
      "outputs": [],
      "stateMutability": "nonpayable",
      "type": "function"
    },
    {
      "inputs": [
        {
          "internalType": "address",
          "name": "from",
          "type": "address"
        },
        {
          "internalType": "address",
          "name": "to",
          "type": "address"
        },
        {
          "internalType": "uint256",
          "name": "tokenId",
          "type": "uint256"
        }
      ],
      "name": "safeTransferFrom",
      "outputs": [],
      "stateMutability": "nonpayable",
      "type": "function"
    },
    {
      "inputs": [
        {
          "internalType": "address",
          "name": "from",
          "type": "address"
        },
        {
          "internalType": "address",
          "name": "to",
          "type": "address"
        },
        {
          "internalType": "uint256",
          "name": "tokenId",
          "type": "uint256"
        },
        {
          "internalType": "bytes",
          "name": "_data",
          "type": "bytes"
        }
      ],
      "name": "safeTransferFrom",
      "outputs": [],
      "stateMutability": "nonpayable",
      "type": "function"
    },
    {
      "inputs": [
        {
          "internalType": "address",
          "name": "operator",
          "type": "address"
        },
        {
          "internalType": "bool",
          "name": "approved",
          "type": "bool"
        }
      ],
      "name": "setApprovalForAll",
      "outputs": [],
      "stateMutability": "nonpayable",
      "type": "function"
    },
    {
      "inputs": [
        {
          "internalType": "bytes4",
          "name": "interfaceId",
          "type": "bytes4"
        }
      ],
      "name": "supportsInterface",
      "outputs": [
        {
          "internalType": "bool",
          "name": "",
          "type": "bool"
        }
      ],
      "stateMutability": "view",
      "type": "function"
    },
    {
      "inputs": [],
      "name": "symbol",
      "outputs": [
        {
          "internalType": "string",
          "name": "",
          "type": "string"
        }
      ],
      "stateMutability": "view",
      "type": "function"
    },
    {
      "inputs": [
        {
          "internalType": "uint256",
          "name": "index",
          "type": "uint256"
        }
      ],
      "name": "tokenByIndex",
      "outputs": [
        {
          "internalType": "uint256",
          "name": "",
          "type": "uint256"
        }
      ],
      "stateMutability": "view",
      "type": "function"
    },
    {
      "inputs": [
        {
          "internalType": "address",
          "name": "owner",
          "type": "address"
        },
        {
          "internalType": "uint256",
          "name": "index",
          "type": "uint256"
        }
      ],
      "name": "tokenOfOwnerByIndex",
      "outputs": [
        {
          "internalType": "uint256",
          "name": "",
          "type": "uint256"
        }
      ],
      "stateMutability": "view",
      "type": "function"
    },
    {
      "inputs": [
        {
          "internalType": "uint256",
          "name": "tokenId",
          "type": "uint256"
        }
      ],
      "name": "tokenURI",
      "outputs": [
        {
          "internalType": "string",
          "name": "",
          "type": "string"
        }
      ],
      "stateMutability": "view",
      "type": "function"
    },
    {
      "inputs": [],
      "name": "totalSupply",
      "outputs": [
        {
          "internalType": "uint256",
          "name": "",
          "type": "uint256"
        }
      ],
      "stateMutability": "view",
      "type": "function"
    },
    {
      "inputs": [
        {
          "internalType": "address",
          "name": "from",
          "type": "address"
        },
        {
          "internalType": "address",
          "name": "to",
          "type": "address"
        },
        {
          "internalType": "uint256",
          "name": "tokenId",
          "type": "uint256"
        }
      ],
      "name": "transferFrom",
      "outputs": [],
      "stateMutability": "nonpayable",
      "type": "function"
    },
    {
      "inputs": [
        {
          "internalType": "address",
          "name": "newOwner",
          "type": "address"
        }
      ],
      "name": "transferOwnership",
      "outputs": [],
      "stateMutability": "nonpayable",
      "type": "function"
    },
    {
      "inputs": [
        {
          "internalType": "address",
          "name": "newattestorKey",
          "type": "address"
        },
        {
          "internalType": "address",
          "name": "newIssuerKey",
          "type": "address"
        }
      ],
      "name": "updateAttestationKeys",
      "outputs": [],
      "stateMutability": "nonpayable",
      "type": "function"
    },
    {
      "inputs": [
        {
          "internalType": "address",
          "name": "newVerifyAddress",
          "type": "address"
        }
      ],
      "name": "updateVericationAddress",
      "outputs": [],
      "stateMutability": "nonpayable",
      "type": "function"
    }
  ],
  "transactionHash": "0xadf36db18a3d81fefd50e583a6a9b93f0e95ae10133dae15de97957ff8f7203d",
  "args": [
    "0x1e73f42fc513fc9f13d06525ee7ce1be2c087d7a",
    "0x538080305560986811c3c1a2c5bcb4f37670ef7e",
    "0x17c0b3b51a75f1a001f255a7cad4fa45529cac20"
  ],
  "numDeployments": 1,
  "solcInputHash": "cc524fada8eab1d5301496f998571f6e",
  "bytecode": "0x60806040523480156200001157600080fd5b506040516200259838038062002598833981016040819052620000349162000218565b604080518082018252600f81526e141c9bdbd9881bd988151a58dad95d608a1b602080830191825283518085019094526006845265151250d2d15560d21b908401528151919291620000899160009162000155565b5080516200009f90600190602084019062000155565b505050620000bc620000b6620000ff60201b60201c565b62000103565b600d80546001600160a01b039485166001600160a01b031991821617909155600b805493851693821693909317909255600c80549190931691161790556200029e565b3390565b600a80546001600160a01b038381166001600160a01b0319831681179093556040519116919082907f8be0079c531659141344cd1fd0a4f28419497f9722a3daafe3b4186f6b6457e090600090a35050565b828054620001639062000261565b90600052602060002090601f016020900481019282620001875760008555620001d2565b82601f10620001a257805160ff1916838001178555620001d2565b82800160010185558215620001d2579182015b82811115620001d2578251825591602001919060010190620001b5565b50620001e0929150620001e4565b5090565b5b80821115620001e05760008155600101620001e5565b80516001600160a01b03811681146200021357600080fd5b919050565b6000806000606084860312156200022d578283fd5b6200023884620001fb565b92506200024860208501620001fb565b91506200025860408501620001fb565b90509250925092565b600181811c908216806200027657607f821691505b602082108114156200029857634e487b7160e01b600052602260045260246000fd5b50919050565b6122ea80620002ae6000396000f3fe60806040526004361061014b5760003560e01c80634f6ccce7116100b6578063a22cb4651161006f578063a22cb465146103a8578063b88d4fde146103c8578063bb6e7de9146103e8578063c87b56dd146103f0578063e985e9c514610410578063f2fde38b1461045957600080fd5b80634f6ccce7146103005780636352211e1461032057806370a0823114610340578063715018a6146103605780638da5cb5b1461037557806395d89b411461039357600080fd5b806318160ddd1161010857806318160ddd1461024157806323b872dd146102605780632f745c591461028057806342842e0e146102a057806342966c68146102c05780634cdbfeb3146102e057600080fd5b806301ffc9a71461015057806306ca3dbf1461018557806306fdde03146101a7578063078c09e1146101c9578063081812fc146101e9578063095ea7b314610221575b600080fd5b34801561015c57600080fd5b5061017061016b366004611e41565b610479565b60405190151581526020015b60405180910390f35b34801561019157600080fd5b506101a56101a0366004611c80565b6104a4565b005b3480156101b357600080fd5b506101bc610505565b60405161017c9190611fe6565b3480156101d557600080fd5b506101a56101e4366004611c64565b610597565b3480156101f557600080fd5b50610209610204366004611eac565b6105e3565b6040516001600160a01b03909116815260200161017c565b34801561022d57600080fd5b506101a561023c366004611e16565b610678565b34801561024d57600080fd5b506008545b60405190815260200161017c565b34801561026c57600080fd5b506101a561027b366004611cb8565b61078e565b34801561028c57600080fd5b5061025261029b366004611e16565b6107c0565b3480156102ac57600080fd5b506101a56102bb366004611cb8565b610856565b3480156102cc57600080fd5b506101a56102db366004611eac565b610871565b3480156102ec57600080fd5b506102526102fb366004611e79565b6108f8565b34801561030c57600080fd5b5061025261031b366004611eac565b610a23565b34801561032c57600080fd5b5061020961033b366004611eac565b610ac4565b34801561034c57600080fd5b5061025261035b366004611c64565b610b3b565b34801561036c57600080fd5b506101a5610bc2565b34801561038157600080fd5b50600a546001600160a01b0316610209565b34801561039f57600080fd5b506101bc610bf8565b3480156103b457600080fd5b506101a56103c3366004611d62565b610c07565b3480156103d457600080fd5b506101a56103e3366004611cf8565b610c16565b6101a5610c4e565b3480156103fc57600080fd5b506101bc61040b366004611eac565b610c86565b34801561041c57600080fd5b5061017061042b366004611c80565b6001600160a01b03918216600090815260056020908152604080832093909416825291909152205460ff1690565b34801561046557600080fd5b506101a5610474366004611c64565b610d9b565b60006001600160e01b0319821663780e9d6360e01b148061049e575061049e82610e33565b92915050565b600a546001600160a01b031633146104d75760405162461bcd60e51b81526004016104ce9061204b565b60405180910390fd5b600b80546001600160a01b039384166001600160a01b031991821617909155600c8054929093169116179055565b606060008054610514906121cf565b80601f0160208091040260200160405190810160405280929190818152602001828054610540906121cf565b801561058d5780601f106105625761010080835404028352916020019161058d565b820191906000526020600020905b81548152906001019060200180831161057057829003601f168201915b5050505050905090565b600a546001600160a01b031633146105c15760405162461bcd60e51b81526004016104ce9061204b565b600d80546001600160a01b0319166001600160a01b0392909216919091179055565b6000818152600260205260408120546001600160a01b031661065c5760405162461bcd60e51b815260206004820152602c60248201527f4552433732313a20617070726f76656420717565727920666f72206e6f6e657860448201526b34b9ba32b73a103a37b5b2b760a11b60648201526084016104ce565b506000908152600460205260409020546001600160a01b031690565b600061068382610ac4565b9050806001600160a01b0316836001600160a01b031614156106f15760405162461bcd60e51b815260206004820152602160248201527f4552433732313a20617070726f76616c20746f2063757272656e74206f776e656044820152603960f91b60648201526084016104ce565b336001600160a01b038216148061070d575061070d813361042b565b61077f5760405162461bcd60e51b815260206004820152603860248201527f4552433732313a20617070726f76652063616c6c6572206973206e6f74206f7760448201527f6e6572206e6f7220617070726f76656420666f7220616c6c000000000000000060648201526084016104ce565b6107898383610e83565b505050565b610799335b82610ef1565b6107b55760405162461bcd60e51b81526004016104ce90612080565b610789838383610fe8565b60006107cb83610b3b565b821061082d5760405162461bcd60e51b815260206004820152602b60248201527f455243373231456e756d657261626c653a206f776e657220696e646578206f7560448201526a74206f6620626f756e647360a81b60648201526084016104ce565b506001600160a01b03919091166000908152600660209081526040808320938352929052205490565b61078983838360405180602001604052806000815250610c16565b61087a33610793565b6108ec5760405162461bcd60e51b815260206004820152603a60248201527f4174746573746174696f6e4d696e7461626c653a204275726e2063616c6c657260448201527f206973206e6f74206f776e6572206e6f7220617070726f76656400000000000060648201526084016104ce565b6108f58161118f565b50565b600d54600b54600c54604051639287306f60e01b8152600093849360609385936001600160a01b03938416938493639287306f93610942938c939283169290911690600401611fb3565b60006040518083038186803b15801561095a57600080fd5b505afa15801561096e573d6000803e3d6000fd5b505050506040513d6000823e601f3d908101601f191682016040526109969190810190611d8f565b9296509094509092506109aa905083611236565b94506001600160a01b038416158015906109c357508415155b80156109cc5750815b610a105760405162461bcd60e51b8152602060048201526015602482015274105d1d195cdd185d1a5bdb881b9bdd081d985b1a59605a1b60448201526064016104ce565b610a1a848661129a565b50505050919050565b6000610a2e60085490565b8210610a915760405162461bcd60e51b815260206004820152602c60248201527f455243373231456e756d657261626c653a20676c6f62616c20696e646578206f60448201526b7574206f6620626f756e647360a01b60648201526084016104ce565b60088281548110610ab257634e487b7160e01b600052603260045260246000fd5b90600052602060002001549050919050565b6000818152600260205260408120546001600160a01b03168061049e5760405162461bcd60e51b815260206004820152602960248201527f4552433732313a206f776e657220717565727920666f72206e6f6e657869737460448201526832b73a103a37b5b2b760b91b60648201526084016104ce565b60006001600160a01b038216610ba65760405162461bcd60e51b815260206004820152602a60248201527f4552433732313a2062616c616e636520717565727920666f7220746865207a65604482015269726f206164647265737360b01b60648201526084016104ce565b506001600160a01b031660009081526003602052604090205490565b600a546001600160a01b03163314610bec5760405162461bcd60e51b81526004016104ce9061204b565b610bf660006113e8565b565b606060018054610514906121cf565b610c1233838361143a565b5050565b610c203383610ef1565b610c3c5760405162461bcd60e51b81526004016104ce90612080565b610c4884848484611509565b50505050565b600a546001600160a01b03163314610c785760405162461bcd60e51b81526004016104ce9061204b565b600a546001600160a01b0316ff5b6000818152600260205260409020546060906001600160a01b0316610d0a5760405162461bcd60e51b815260206004820152603460248201527f4174746573746174696f6e4d696e7461626c653a20555249207175657279206660448201527337b9103737b732bc34b9ba32b73a103a37b5b2b760611b60648201526084016104ce565b6040518060400160405280601681526020017568747470733a2f2f616c6368656d796e66742e696f2f60501b815250610d424661153c565b610d4a611656565b610d538561153c565b60405180604001604052806005815260200164173539b7b760d91b815250604051602001610d85959493929190611ef0565b6040516020818303038152906040529050919050565b600a546001600160a01b03163314610dc55760405162461bcd60e51b81526004016104ce9061204b565b6001600160a01b038116610e2a5760405162461bcd60e51b815260206004820152602660248201527f4f776e61626c653a206e6577206f776e657220697320746865207a65726f206160448201526564647265737360d01b60648201526084016104ce565b6108f5816113e8565b60006001600160e01b031982166380ac58cd60e01b1480610e6457506001600160e01b03198216635b5e139f60e01b145b8061049e57506301ffc9a760e01b6001600160e01b031983161461049e565b600081815260046020526040902080546001600160a01b0319166001600160a01b0384169081179091558190610eb882610ac4565b6001600160a01b03167f8c5be1e5ebec7d5bd14f71427d1e84f3dd0314c0f7b2291e5b200ac8c7c3b92560405160405180910390a45050565b6000818152600260205260408120546001600160a01b0316610f6a5760405162461bcd60e51b815260206004820152602c60248201527f4552433732313a206f70657261746f7220717565727920666f72206e6f6e657860448201526b34b9ba32b73a103a37b5b2b760a11b60648201526084016104ce565b6000610f7583610ac4565b9050806001600160a01b0316846001600160a01b03161480610fbc57506001600160a01b0380821660009081526005602090815260408083209388168352929052205460ff165b80610fe05750836001600160a01b0316610fd5846105e3565b6001600160a01b0316145b949350505050565b826001600160a01b0316610ffb82610ac4565b6001600160a01b03161461105f5760405162461bcd60e51b815260206004820152602560248201527f4552433732313a207472616e736665722066726f6d20696e636f72726563742060448201526437bbb732b960d91b60648201526084016104ce565b6001600160a01b0382166110c15760405162461bcd60e51b8152602060048201526024808201527f4552433732313a207472616e7366657220746f20746865207a65726f206164646044820152637265737360e01b60648201526084016104ce565b6110cc838383611668565b6110d7600082610e83565b6001600160a01b0383166000908152600360205260408120805460019290611100908490612175565b90915550506001600160a01b038216600090815260036020526040812080546001929061112e90849061212a565b909155505060008181526002602052604080822080546001600160a01b0319166001600160a01b0386811691821790925591518493918716917fddf252ad1be2c89b69c2b068fc378daa952ba7f163c4a11628f55a4df523b3ef91a4505050565b600061119a82610ac4565b90506111a881600084611668565b6111b3600083610e83565b6001600160a01b03811660009081526003602052604081208054600192906111dc908490612175565b909155505060008281526002602052604080822080546001600160a01b0319169055518391906001600160a01b038416907fddf252ad1be2c89b69c2b068fc378daa952ba7f163c4a11628f55a4df523b3ef908390a45050565b600060208251101561128e576040805160208082528183019092526000916020820181803683370190505090506000835160406112739190612175565b60208581015191840191909152919091015191506112959050565b5060208101515b919050565b6001600160a01b0382166112f05760405162461bcd60e51b815260206004820181905260248201527f4552433732313a206d696e7420746f20746865207a65726f206164647265737360448201526064016104ce565b6000818152600260205260409020546001600160a01b0316156113555760405162461bcd60e51b815260206004820152601c60248201527f4552433732313a20746f6b656e20616c7265616479206d696e7465640000000060448201526064016104ce565b61136160008383611668565b6001600160a01b038216600090815260036020526040812080546001929061138a90849061212a565b909155505060008181526002602052604080822080546001600160a01b0319166001600160a01b03861690811790915590518392907fddf252ad1be2c89b69c2b068fc378daa952ba7f163c4a11628f55a4df523b3ef908290a45050565b600a80546001600160a01b038381166001600160a01b0319831681179093556040519116919082907f8be0079c531659141344cd1fd0a4f28419497f9722a3daafe3b4186f6b6457e090600090a35050565b816001600160a01b0316836001600160a01b0316141561149c5760405162461bcd60e51b815260206004820152601960248201527f4552433732313a20617070726f766520746f2063616c6c65720000000000000060448201526064016104ce565b6001600160a01b03838116600081815260056020908152604080832094871680845294825291829020805460ff191686151590811790915591519182527f17307eab39ab6107e8899845ad3d59bd9653f200f220920489ca2b5937696c31910160405180910390a3505050565b611514848484610fe8565b61152084848484611720565b610c485760405162461bcd60e51b81526004016104ce90611ff9565b6060816115605750506040805180820190915260018152600360fc1b602082015290565b8160005b811561158a57806115748161220a565b91506115839050600a83612142565b9150611564565b60008167ffffffffffffffff8111156115b357634e487b7160e01b600052604160045260246000fd5b6040519080825280601f01601f1916602001820160405280156115dd576020820181803683370190505b5090505b8415610fe0576115f2600183612175565b91506115ff600a86612225565b61160a90603061212a565b60f81b81838151811061162d57634e487b7160e01b600052603260045260246000fd5b60200101906001600160f81b031916908160001a90535061164f600a86612142565b94506115e1565b606061166330601461182d565b905090565b6001600160a01b0383166116c3576116be81600880546000838152600960205260408120829055600182018355919091527ff3f7a9fe364faab93b216da50a3214154f22a0a2b415b23a84c8169e8b636ee30155565b6116e6565b816001600160a01b0316836001600160a01b0316146116e6576116e68382611a16565b6001600160a01b0382166116fd5761078981611ab3565b826001600160a01b0316826001600160a01b031614610789576107898282611b8c565b60006001600160a01b0384163b1561182257604051630a85bd0160e11b81526001600160a01b0385169063150b7a0290611764903390899088908890600401611f76565b602060405180830381600087803b15801561177e57600080fd5b505af19250505080156117ae575060408051601f3d908101601f191682019092526117ab91810190611e5d565b60015b611808573d8080156117dc576040519150601f19603f3d011682016040523d82523d6000602084013e6117e1565b606091505b5080516118005760405162461bcd60e51b81526004016104ce90611ff9565b805181602001fd5b6001600160e01b031916630a85bd0160e11b149050610fe0565b506001949350505050565b6060600061183c836002612156565b61184790600261212a565b67ffffffffffffffff81111561186d57634e487b7160e01b600052604160045260246000fd5b6040519080825280601f01601f191660200182016040528015611897576020820181803683370190505b509050600360fc1b816000815181106118c057634e487b7160e01b600052603260045260246000fd5b60200101906001600160f81b031916908160001a905350600f60fb1b816001815181106118fd57634e487b7160e01b600052603260045260246000fd5b60200101906001600160f81b031916908160001a9053506000611921846002612156565b61192c90600161212a565b90505b60018111156119c0576f181899199a1a9b1b9c1cb0b131b232b360811b85600f166010811061196e57634e487b7160e01b600052603260045260246000fd5b1a60f81b82828151811061199257634e487b7160e01b600052603260045260246000fd5b60200101906001600160f81b031916908160001a90535060049490941c936119b9816121b8565b905061192f565b508315611a0f5760405162461bcd60e51b815260206004820181905260248201527f537472696e67733a20686578206c656e67746820696e73756666696369656e7460448201526064016104ce565b9392505050565b60006001611a2384610b3b565b611a2d9190612175565b600083815260076020526040902054909150808214611a80576001600160a01b03841660009081526006602090815260408083208584528252808320548484528184208190558352600790915290208190555b5060009182526007602090815260408084208490556001600160a01b039094168352600681528383209183525290812055565b600854600090611ac590600190612175565b60008381526009602052604081205460088054939450909284908110611afb57634e487b7160e01b600052603260045260246000fd5b906000526020600020015490508060088381548110611b2a57634e487b7160e01b600052603260045260246000fd5b6000918252602080832090910192909255828152600990915260408082208490558582528120556008805480611b7057634e487b7160e01b600052603160045260246000fd5b6001900381819060005260206000200160009055905550505050565b6000611b9783610b3b565b6001600160a01b039093166000908152600660209081526040808320868452825280832085905593825260079052919091209190915550565b600082601f830112611be0578081fd5b8135611bf3611bee82612102565b6120d1565b818152846020838601011115611c07578283fd5b816020850160208301379081016020019190915292915050565b600082601f830112611c31578081fd5b8151611c3f611bee82612102565b818152846020838601011115611c53578283fd5b610fe082602083016020870161218c565b600060208284031215611c75578081fd5b8135611a0f8161227b565b60008060408385031215611c92578081fd5b8235611c9d8161227b565b91506020830135611cad8161227b565b809150509250929050565b600080600060608486031215611ccc578081fd5b8335611cd78161227b565b92506020840135611ce78161227b565b929592945050506040919091013590565b60008060008060808587031215611d0d578081fd5b8435611d188161227b565b93506020850135611d288161227b565b925060408501359150606085013567ffffffffffffffff811115611d4a578182fd5b611d5687828801611bd0565b91505092959194509250565b60008060408385031215611d74578182fd5b8235611d7f8161227b565b91506020830135611cad81612290565b60008060008060808587031215611da4578384fd5b8451611daf8161227b565b602086015190945067ffffffffffffffff80821115611dcc578485fd5b611dd888838901611c21565b94506040870151915080821115611ded578384fd5b50611dfa87828801611c21565b9250506060850151611e0b81612290565b939692955090935050565b60008060408385031215611e28578182fd5b8235611e338161227b565b946020939093013593505050565b600060208284031215611e52578081fd5b8135611a0f8161229e565b600060208284031215611e6e578081fd5b8151611a0f8161229e565b600060208284031215611e8a578081fd5b813567ffffffffffffffff811115611ea0578182fd5b610fe084828501611bd0565b600060208284031215611ebd578081fd5b5035919050565b60008151808452611edc81602086016020860161218c565b601f01601f19169290920160200192915050565b60008651611f02818460208b0161218c565b865190830190611f16818360208b0161218c565b602f60f81b91018181528651909190611f36816001850160208b0161218c565b60019201918201528451611f5181600284016020890161218c565b8451910190611f6781600284016020880161218c565b01600201979650505050505050565b6001600160a01b0385811682528416602082015260408101839052608060608201819052600090611fa990830184611ec4565b9695505050505050565b606081526000611fc66060830186611ec4565b6001600160a01b0394851660208401529290931660409091015292915050565b602081526000611a0f6020830184611ec4565b60208082526032908201527f4552433732313a207472616e7366657220746f206e6f6e20455243373231526560408201527131b2b4bb32b91034b6b83632b6b2b73a32b960711b606082015260800190565b6020808252818101527f4f776e61626c653a2063616c6c6572206973206e6f7420746865206f776e6572604082015260600190565b60208082526031908201527f4552433732313a207472616e736665722063616c6c6572206973206e6f74206f6040820152701ddb995c881b9bdc88185c1c1c9bdd9959607a1b606082015260800190565b604051601f8201601f1916810167ffffffffffffffff811182821017156120fa576120fa612265565b604052919050565b600067ffffffffffffffff82111561211c5761211c612265565b50601f01601f191660200190565b6000821982111561213d5761213d612239565b500190565b6000826121515761215161224f565b500490565b600081600019048311821515161561217057612170612239565b500290565b60008282101561218757612187612239565b500390565b60005b838110156121a757818101518382015260200161218f565b83811115610c485750506000910152565b6000816121c7576121c7612239565b506000190190565b600181811c908216806121e357607f821691505b6020821081141561220457634e487b7160e01b600052602260045260246000fd5b50919050565b600060001982141561221e5761221e612239565b5060010190565b6000826122345761223461224f565b500690565b634e487b7160e01b600052601160045260246000fd5b634e487b7160e01b600052601260045260246000fd5b634e487b7160e01b600052604160045260246000fd5b6001600160a01b03811681146108f557600080fd5b80151581146108f557600080fd5b6001600160e01b0319811681146108f557600080fdfea2646970667358221220edf0a6208d0077450e74d1f515b0e0181565899b5e4b543629932b2cf25f36c964736f6c63430008040033",
  "devdoc": {
    "details": "Implementation of https://eips.ethereum.org/EIPS/eip-721[ERC721] Non-Fungible Token Standard, including the Metadata extension, but not including the Enumerable extension, which is available separately as {ERC721Enumerable}.",
    "kind": "dev",
    "methods": {
      "approve(address,uint256)": {
        "details": "See {IERC721-approve}."
      },
      "balanceOf(address)": {
        "details": "See {IERC721-balanceOf}."
      },
      "constructor": {
        "details": "Initializes the contract by setting a `name` and a `symbol` to the token collection."
      },
      "getApproved(uint256)": {
        "details": "See {IERC721-getApproved}."
      },
      "isApprovedForAll(address,address)": {
        "details": "See {IERC721-isApprovedForAll}."
      },
      "name()": {
        "details": "See {IERC721Metadata-name}."
      },
      "owner()": {
        "details": "Returns the address of the current owner."
      },
      "ownerOf(uint256)": {
        "details": "See {IERC721-ownerOf}."
      },
      "renounceOwnership()": {
        "details": "Leaves the contract without owner. It will not be possible to call `onlyOwner` functions anymore. Can only be called by the current owner. NOTE: Renouncing ownership will leave the contract without an owner, thereby removing any functionality that is only available to the owner."
      },
      "safeTransferFrom(address,address,uint256)": {
        "details": "See {IERC721-safeTransferFrom}."
      },
      "safeTransferFrom(address,address,uint256,bytes)": {
        "details": "See {IERC721-safeTransferFrom}."
      },
      "setApprovalForAll(address,bool)": {
        "details": "See {IERC721-setApprovalForAll}."
      },
      "supportsInterface(bytes4)": {
        "details": "See {IERC165-supportsInterface}."
      },
      "symbol()": {
        "details": "See {IERC721Metadata-symbol}."
      },
      "tokenByIndex(uint256)": {
        "details": "See {IERC721Enumerable-tokenByIndex}."
      },
      "tokenOfOwnerByIndex(address,uint256)": {
        "details": "See {IERC721Enumerable-tokenOfOwnerByIndex}."
      },
      "tokenURI(uint256)": {
        "details": "See {IERC721Metadata-tokenURI}."
      },
      "totalSupply()": {
        "details": "See {IERC721Enumerable-totalSupply}."
      },
      "transferFrom(address,address,uint256)": {
        "details": "See {IERC721-transferFrom}."
      },
      "transferOwnership(address)": {
        "details": "Transfers ownership of the contract to a new account (`newOwner`). Can only be called by the current owner."
      }
    },
    "version": 1
  },
  "userdoc": {
    "kind": "user",
    "methods": {},
    "version": 1
  },
  "storageLayout": {
    "storage": [
      {
        "astId": 130,
        "contract": "contracts/AttestationMintableEnumerable.sol:AttestationMintableEnumerable",
        "label": "_name",
        "offset": 0,
        "slot": "0",
        "type": "t_string_storage"
      },
      {
        "astId": 132,
        "contract": "contracts/AttestationMintableEnumerable.sol:AttestationMintableEnumerable",
        "label": "_symbol",
        "offset": 0,
        "slot": "1",
        "type": "t_string_storage"
      },
      {
        "astId": 136,
        "contract": "contracts/AttestationMintableEnumerable.sol:AttestationMintableEnumerable",
        "label": "_owners",
        "offset": 0,
        "slot": "2",
        "type": "t_mapping(t_uint256,t_address)"
      },
      {
        "astId": 140,
        "contract": "contracts/AttestationMintableEnumerable.sol:AttestationMintableEnumerable",
        "label": "_balances",
        "offset": 0,
        "slot": "3",
        "type": "t_mapping(t_address,t_uint256)"
      },
      {
        "astId": 144,
        "contract": "contracts/AttestationMintableEnumerable.sol:AttestationMintableEnumerable",
        "label": "_tokenApprovals",
        "offset": 0,
        "slot": "4",
        "type": "t_mapping(t_uint256,t_address)"
      },
      {
        "astId": 150,
        "contract": "contracts/AttestationMintableEnumerable.sol:AttestationMintableEnumerable",
        "label": "_operatorApprovals",
        "offset": 0,
        "slot": "5",
        "type": "t_mapping(t_address,t_mapping(t_address,t_bool))"
      },
      {
        "astId": 1119,
        "contract": "contracts/AttestationMintableEnumerable.sol:AttestationMintableEnumerable",
        "label": "_ownedTokens",
        "offset": 0,
        "slot": "6",
        "type": "t_mapping(t_address,t_mapping(t_uint256,t_uint256))"
      },
      {
        "astId": 1123,
        "contract": "contracts/AttestationMintableEnumerable.sol:AttestationMintableEnumerable",
        "label": "_ownedTokensIndex",
        "offset": 0,
        "slot": "7",
        "type": "t_mapping(t_uint256,t_uint256)"
      },
      {
        "astId": 1126,
        "contract": "contracts/AttestationMintableEnumerable.sol:AttestationMintableEnumerable",
        "label": "_allTokens",
        "offset": 0,
        "slot": "8",
        "type": "t_array(t_uint256)dyn_storage"
      },
      {
        "astId": 1130,
        "contract": "contracts/AttestationMintableEnumerable.sol:AttestationMintableEnumerable",
        "label": "_allTokensIndex",
        "offset": 0,
        "slot": "9",
        "type": "t_mapping(t_uint256,t_uint256)"
      },
      {
        "astId": 7,
        "contract": "contracts/AttestationMintableEnumerable.sol:AttestationMintableEnumerable",
        "label": "_owner",
        "offset": 0,
        "slot": "10",
        "type": "t_address"
      },
      {
        "astId": 3551,
        "contract": "contracts/AttestationMintableEnumerable.sol:AttestationMintableEnumerable",
        "label": "_attestorKey",
        "offset": 0,
        "slot": "11",
        "type": "t_address"
      },
      {
        "astId": 3553,
        "contract": "contracts/AttestationMintableEnumerable.sol:AttestationMintableEnumerable",
        "label": "_issuerKey",
        "offset": 0,
        "slot": "12",
        "type": "t_address"
      },
      {
        "astId": 3555,
        "contract": "contracts/AttestationMintableEnumerable.sol:AttestationMintableEnumerable",
        "label": "_verificationAddress",
        "offset": 0,
        "slot": "13",
        "type": "t_address"
      }
    ],
    "types": {
      "t_address": {
        "encoding": "inplace",
        "label": "address",
        "numberOfBytes": "20"
      },
      "t_array(t_uint256)dyn_storage": {
        "base": "t_uint256",
        "encoding": "dynamic_array",
        "label": "uint256[]",
        "numberOfBytes": "32"
      },
      "t_bool": {
        "encoding": "inplace",
        "label": "bool",
        "numberOfBytes": "1"
      },
      "t_mapping(t_address,t_bool)": {
        "encoding": "mapping",
        "key": "t_address",
        "label": "mapping(address => bool)",
        "numberOfBytes": "32",
        "value": "t_bool"
      },
      "t_mapping(t_address,t_mapping(t_address,t_bool))": {
        "encoding": "mapping",
        "key": "t_address",
        "label": "mapping(address => mapping(address => bool))",
        "numberOfBytes": "32",
        "value": "t_mapping(t_address,t_bool)"
      },
      "t_mapping(t_address,t_mapping(t_uint256,t_uint256))": {
        "encoding": "mapping",
        "key": "t_address",
        "label": "mapping(address => mapping(uint256 => uint256))",
        "numberOfBytes": "32",
        "value": "t_mapping(t_uint256,t_uint256)"
      },
      "t_mapping(t_address,t_uint256)": {
        "encoding": "mapping",
        "key": "t_address",
        "label": "mapping(address => uint256)",
        "numberOfBytes": "32",
        "value": "t_uint256"
      },
      "t_mapping(t_uint256,t_address)": {
        "encoding": "mapping",
        "key": "t_uint256",
        "label": "mapping(uint256 => address)",
        "numberOfBytes": "32",
        "value": "t_address"
      },
      "t_mapping(t_uint256,t_uint256)": {
        "encoding": "mapping",
        "key": "t_uint256",
        "label": "mapping(uint256 => uint256)",
        "numberOfBytes": "32",
        "value": "t_uint256"
      },
      "t_string_storage": {
        "encoding": "bytes",
        "label": "string",
        "numberOfBytes": "32"
      },
      "t_uint256": {
        "encoding": "inplace",
        "label": "uint256",
        "numberOfBytes": "32"
      }
    }
  }
}